:020000040000FA
:04000000FFEF09F015
:08000800056ED8CF06F0E0CF31
:1000100007F00001E9CF0DF0EACF08F0E1CF09F0D9
:10002000E2CF0AF0D9CF0BF0DACF0CF0F3CF14F017
:10003000F4CF15F0FACF16F000C00FF001C010F0A9
:1000400002C011F003C012F004C013F0A0AA2CEFFC
:1000500000F0A1BADFEF06F00FC000F010C001F011
:1000600011C002F012C003F013C004F00E8E0DC0D8
:10007000E9FF08C0EAFF09C0E1FF0AC0E2FF0BC0C8
:10008000D9FF0CC0DAFF14C0F3FF15C0F4FF16C08F
:10009000FAFF055007C0E0FF06C0D8FF1000F76A5E
:1000A000AE0FF66E000EF7220900F55012000403A1
:1000B0000100000000000000000000000000F76ADE
:1000C000CE0FF66E000EF7220900F5501200040064
:1000D0000100000000000000000000000000F76ABE
:1000E000EE0FF66E000EF7220900F55012004000E8
:1000F00008004000000000000000000000000000B8
:100100000000000000000000000000000000F76A8E
:100110001E0FF66E010EF7220900F5501200400086
:10012000000040000000000000000000000000008F
:100130000000000000000000000000000000F76A5E
:100140004E0FF66E010EF7220900F550120009025B
:100150004300020100C03209040000010202010054
:1001600005240010010424020205240600010524D0
:10017000010001070581030800FA09040100020AD1
:10018000000000070502024000FA07058202400055
:10019000FA00F76AA20FF66E010EF7220900F55079
:1001A00012000200F76AB40FF66E010EF722090082
:1001B000F55012001201100102000040D8040A009C
:1001C000000101020001F76AD60FF66E010EF72258
:1001D0000900F5501200040309040803430043001A
:1001E00053001E03430043005300200052005300FD
:1001F0003200330032002000440065006D006F00C3
:10020000F2CF0EF0F29EF76A1A0FF66E020EF72288
:100210000900F5500EBEF28E12000D20566F6C7460
:100220006167653D2530312E326656006D926994C6
:100230006894EAEF06F06A6A6892F3EF06F02C6AB7
:100240002B6A250E2A6E800E296E2D6A2E6A080EE4
:100250002F6E7F6B7A93316A306A7B6B7C917A81E7
:10026000000CB06BB05101080AE3036AB051270FCC
:10027000E96E000E0320EA6EEF6AB02BF3D7DFDFE2
:100280001A6A010E1B6E196A000C010EB96FB95182
:100290000F080EE3700EB925016E0F0E036ED8B075
:1002A000032A01C0E9FF03C0EAFFEF6AB92BEFD7C9
:1002B0001E6A1D6A000C400E0401016F050E036FDB
:1002C000026B880E006F046B050E076F400E066F01
:1002D0000001000C6A6A686A9F0E6B6E390E696EC7
:1002E0006E6ABFDFD2DF160E706E68A602D0689607
:1002F000FCD76D98E0DF030E1F6EF9EF06F06984FE
:1003000068986D82FFEF06F0689C05EF07F070A01B
:1003100002D0D1DF7090689A0BEF07F0B4C020F0E4
:10032000000CFF0E206E000CB26B265235E0B2516D
:100330003F0832E31C5005E0020A0DE0010A15E017
:100340001ED0036A2550F2CFB4F0F29EF8DEB4BF9F
:10035000F28EB36F14D0036A2550F2CFB4F0F29E40
:1003600032DFB4BFF28EB36F0AD0036A2550F2CFEA
:10037000B4F0F29E17DFB4BFF28EB36F00D0252A1F
:100380002606B251B22B036A400FE96E050E032018
:10039000EA6EB3C0EFFFC9D7265204E1B25140085C
:1003A00001E0196AB2C0B4F0B9DF000C256A1C6A1A
:1003B00005010351010A000105E0030A08E0010AF2
:1003C00009E01FD0120E266E030E1C6E1CD0430EC9
:1003D000266E19D0020E1C6E036A05010251210F10
:1003E000E96E000E0320EA6EEFCF25F0036A255078
:1003F000F2CFB1F0F29E0001E6DEB1BFF28E266EC2
:1004000002D08FDF0CD00501075305E12650065DB1
:1004100002E206C526F0010E196E000185DF29EF04
:1004200003F0B15304E1040E1F6E2FDFC1D0050E9F
:100430001F6EB46F800EB36F010EB26FB2510F0812
:10044000D8A0B6D0B56B036AB251F2CFB9F0F29E24
:1004500036DEB9BFF28E000A51E0040EB56FD890B7
:10046000B235036AF2CFB9F0F29E51DE0900F5CF42
:1004700003F0B9BFF28EB66F03C0B7F0B251080DEA
:10048000F350010F016E040E036ED8B0032A01C0B1
:10049000E9FF03C0EAFFB6C0EFFFB251080DF35009
:1004A000020F016E040E036ED8B0032A01C0E9FFEB
:1004B00003C0EAFFB4C0ECFFED52B3C0EFFFD89029
:1004C000B235036AF2CFB9F0F29E21DE0900F5CF12
:1004D00003F0B9BFF28EB3270350B423880EB86F70
:1004E000B7B1B881B7B3B883B251080DF3CF01F0FB
:1004F000040E01C0E9FFEA6EB8C0EFFF036AB25113
:10050000F2CFB9F0F29ECBDDB9BFF28E000A31E036
:10051000B583B251080DF350060F016E040E036E41
:10052000D8B0032A01C0E9FF03C0EAFFB4C0ECFF62
:10053000ED52B3C0EFFFD890B235036AF2CFB9F0F5
:10054000F29ECDDD0900F5CF03F0B9BFF28EB327DF
:100550000350B423B251080DF350040F016E040E82
:10056000036ED8B0032A01C0E9FF03C0EAFF400EC2
:10057000EF6EB551060802E10E0EB56F036AB25177
:10058000F2CFB9F0F29E8BDDB9BFF28E020801E026
:10059000B589700EB225016E0F0E036ED8B0032A16
:1005A00001C0E9FF03C0EAFFB5C0EFFFB22B46D799
:1005B00023EF03F00501015100010DE0010A14E0F1
:1005C000020A1EE0060A27E0030A2CE00E0A2BE0CE
:1005D000010A2FE03CD01BC040F50501416B020E23
:1005E0000001B46F9BDE35D00501022D06D0010E4F
:1005F0001B160001B46B92DE02D0000192DE29D0FE
:100600000501022D05D01B820001B46B87DE02D0EC
:10061000000187DE1ED0020E196E02C524F0B46BF5
:100620007DDE17D0C3D61AC040F5010EB46F76DE5A
:1006300010D005010251010808E302C51AF002C5F5
:10064000B1F00001EED6B46B69DE000102D069DEC4
:1006500000D0A5EF04F01AC0B1F00501015100016E
:1006600005E00A0A0BE0010A2BE03CD00501406BD3
:10067000416B020E0001B46F51DE36D0B1531EE063
:10068000010EB15D036AF2CFB3F0F29E82DDB3BF1B
:10069000F28E016E0501045DD8A002D000010ED0DB
:1006A000036A0451270FE96E000E0320EA6EEFCFB4
:1006B00040F5010E0001B46F31DE01D032DE14D0FE
:1006C000B1530EE0036A05010451270FE96E000ED5
:1006D0000320EA6E02C5EFFF0001B46B1FDE01D0FC
:1006E00020DE02D01EDE00D0A5EF04F0B1AFB29143
:1006F000B1BFB281B19FB2A110D0036AB151F2CFA4
:10070000B3F0F29ECCDCB3BFF28E000A02E1000E21
:1007100001D0010E016E10D00FD0036AB151F2CF9B
:10072000B3F0F29ECCDCB3BFF28E000A02E1000E01
:1007300001D0010E016E00D011EF04F0B1AFB29103
:10074000B1BFB281B19FB2A110D0B151080DF35029
:10075000040F016E040E036ED8B0032A01C0E9FF36
:1007600003C0EAFF880EEF6E09D0B151080DF3CF38
:1007700001F0040E01C0E9FFEA6EEF6A20EF04F019
:10078000B1AFB291B1BFB281B19FB2A110D0B1519E
:10079000080DF350040F016E040E036ED8B0032A47
:1007A00001C0E9FF03C0EAFF840EEF6E0AD0B15129
:1007B000080DF3CF01F0040E01C0E9FFEA6E840ECC
:1007C000EF6E26EF04F0B1AFB291B1BFB281B19F2D
:1007D000B2A110D0B151080DF350040F016E040EF8
:1007E000036ED8B0032A01C0E9FF03C0EAFFEFCFD0
:1007F000B3F00AD0B151080DF3CF01F0040E01C0DF
:10080000E9FFEA6EEFCFB3F0B3AF02D0B3B502D0D9
:10081000000E01D0010E016E30EF04F004C5B1F0FE
:1008200065D7015229E005010151010A000105E0E7
:10083000020A09E0030A0DE01DD004C5B1F07ED71D
:10084000B46B6CDD19D004C5B1F09AD7B46B66DD1A
:1008500013D00501406B416B04C5B1F00001B3D763
:10086000015204E0010E0501406F0001020EB46F59
:1008700055DD02D056DD00D0A5EF04F0FE0E206E4F
:10088000000C0501042D01D002D0045348E10151B0
:1008900000010BE0010A0DE0210A1CE0010A1FE043
:1008A000030A2EE0010A31E037D0010E806FE6DF47
:1008B00035D0050EEA6E400EE96EE26A320EE16E48
:1008C000080E016EE6CFEEFF012EFCD706C5B4F090
:1008D00025DD24D0020E806F7A83D0DF1FD0050E75
:1008E000EA6E400EE96EE26A290EE16E070E016EB5
:1008F000E6CFEEFF012EFCD7070EB46F0FDD0ED052
:1009000002C57FF0B46B0ADD09D002C531F003C522
:1009100030F0B46B03DD02D004DD00D0050100012E
:10092000A5EF04F0196A050100517F0B000107E0F3
:10093000010A06E0030A05E0230A04E004D03AD6DF
:100940008AD66CD79ED7EDDC00D08AEF06F0B15185
:10095000080DF3CF01F0040E01C0E9FFEA6EEFCFFE
:10096000B3F0B251020806E1B3AD02D0B26B02D0CF
:10097000010EB26FB251030812E1840EB36FB15190
:10098000080DF350040F016E040E036ED8B0032A55
:1009900001C0E9FF03C0EAFF840EEF6E09D0B22D5B
:1009A00003D0C80EB36F04D0B25302E1880EB36F08
:1009B000036A010E026EB151006E05E0D890023656
:1009C0000336002EFBD70250FF0A006EFF0E031AFB
:1009D00000501D1603501E16D890B135036AF2CF91
:1009E000B6F0F29E87EC00F00900F5CF03F0B6BF39
:1009F000F28EB46F03C0B5F0B151080DF350010F82
:100A0000016E040E036ED8B0032A01C0E9FF03C0D3
:100A1000EAFFB4C0EFFFB5B1B381B5B3B383B15151
:100A2000080DF3CF01F0040E01C0E9FFEA6EB3C078
:100A3000EFFF000CBD51080DF350040F016E040EC2
:100A4000036ED8B0032A01C0E9FF03C0EAFFEFCF6D
:100A5000C1F0C1BF5BD0BD51080DF350050F016E51
:100A6000040E036ED8B0032A01C0E9FF03C0EAFFF9
:100A7000BEC0EFFFC051020816E1BD51080DF35092
:100A8000040F016E040E036ED8B0032A01C0E9FF03
:100A900003C0EAFFEFCFC1F0C1AD02D0C06B02D0FE
:100AA000010EC06F13D0C051040810E1BD51080DF4
:100AB000F3CF01F0040E01C0E9FFEA6EEFCFC1F001
:100AC000C1AD03D0010EC06F01D0C06BC02D03D0EB
:100AD000C80EC16F04D0C05302E1880EC16FBFB110
:100AE000C181BFB3C183BD51080DF350040F016E26
:100AF000040E036ED8B0032A01C0E9FF03C0EAFF69
:100B0000C1C0EFFF010E016E03D000D0000E016ED8
:100B1000000C8051010A03E0030A12E022D0EA6AC5
:100B2000320EE96E050EE26EE16A080E016EE6CF46
:100B3000EEFF012EFCD7B46B8EEC01F0806B15D06C
:100B4000EA6A290EE96E050EE26EE16A070E016E91
:100B5000E6CFEEFF012EFCD7806BB46B8EEC01F07C
:100B600004D0806B5BEC01F000D0D7EF05F0B25100
:100B7000080DF350010F016E040E036ED8B0032A66
:100B800001C0E9FF03C0EAFF036AEFCF01F003C031
:100B900002F0D0EF05F07C817E6B020EB26FE7D7DA
:100BA00001C07DF0DCEF05F0B15302E1B2D714D003
:100BB000B151020802E1EFD70FD0036A010E026EB5
:100BC000B151006E05E0D89002360336002EFBD7F7
:100BD00002501D1203501E12000CB2C06EFFB25321
:100BE00003E0040E1F6E02D0020E1F6EFDEF05F033
:100BF0001A6A196A24C0B2F0F0D774EF06F0B25145
:100C0000080DF350040F016E040E036ED8B0032AD2
:100C100001C0E9FF03C0EAFFEFCFBAF0BABF3FD08F
:100C2000B251080DF350060F016E040E036ED8B0DA
:100C3000032A01C0E9FF03C0EAFFECCF03F0ED5245
:100C4000EFCFBBF003C0BCF0B96BB86BB951B65D68
:100C50001AE303E1B551B85D16E2B3C0E9FFB4C0D1
:100C6000EAFFEFCFBFF0BCC0EAFFBBC0E9FFBFC0E7
:100C7000EFFFBB2BD8B4BC2BB32BD8B4B42BB82B01
:100C8000D8B4B92BE3D7B2C0BDF0B6C0BFF0B5C081
:100C9000BEF0B7C0C0F0CEDE015003D000D0000ED1
:100CA000016E000C7B530DE07A91020EB26FB46BB3
:100CB0003A0EB36FB66B7BC0B5F0020EB76F9FDF15
:100CC0007B6B000C7B5302E0EDDF01D07A8179EF82
:100CD00006F0B1530AE1192C03D094EC01F004D0D2
:100CE0001950020801E184D704D0B151020801E192
:100CF000E9D7000C6C30B06FB033B0331F0EB017B3
:100D00006C523BE1040100513C0B34081BE1046BC5
:100D1000000108D6203C05D0B16B030EB26F17DE80
:100D20000ED0B16B020EB26F12DE2050FE0807E04B
:100D3000BD6BBF6B20C0BEF0040EC06F7BDE6D9834
:100D400019D0040100513C0B040815E10001B16BFE
:100D50002BDFB16B020EB26FFADD2050FE080AE005
:100D6000203C01D007D0BD6BBF6B20C0BEF0010E90
:100D7000C06F60DE040120D000016C50040812E155
:100D8000FF0E206EB16BA5DF203C01D008D0BD6BFB
:100D9000BF6B20C0BEF0020EC06F4CDE02D05BEC19
:100DA00001F009D06CB404D0B0C0B1F0FDDE03D0C6
:100DB000B0C0B1F08EDF0401000110EF07F01F5248
:100DC00001E12FD068522DE068A404D069A402D0BC
:100DD00016EF01F06DA201D024D068A204D069A260
:100DE00002D01BEF01F068A004D069A002D06AEF26
:100DF00001F068A804D069A802D07FEF01F068ACC8
:100E000004D069AC02D084EF01F068AA04D069AACA
:100E100002D087EF01F068A604D069A602D06AD795
:100E20006896A19A2CEF00F06D6A696A080E6F6EE1
:100E300094503009946E1F6A186AF2BE188EF29EA2
:100E400031EC01F018BEF28E1E6A1D6A000C186AA1
:100E5000F2BE188EF29E31EC01F018BEF28E6D6A71
:100E6000140E6F6E696A6D86010E1F6E3EEF07F0FD
:100E7000938481A404D06DB601D0E9D703D06DA6C8
:100E800001D0D2DF1F2C0BD06DBA09D0686A696A15
:100E9000A08AC00EF212110E696E020E1F6E000CB7
:100EA000C3DFE6DF1F500208FCE127EF0AF0EA6A21
:100EB0008E0EE96EEF500EE00F0E016E006A002EEE
:100EC000FED7012EFBD78F0E006E002EFED700003E
:100ED000EF2EF2D72FEF0AF08E0E006E8EC001F0CB
:100EE0008DC002F0036A015209E102C001F0026AFA
:100EF000080E005E015202E1006A08D0D89001BEDF
:100F000004D0023601360006F9D7019E43EF0AF0FD
:100F10009B51D8B471D0006E9F51D8B46DD00026CB
:100F200004E3810E002668E204D07F0E005E64E3D5
:100F300063E09CC0A3F0A051A31B9C8FA08F9E5187
:100F4000A203F4CFA5F09D51A103F4CF03F0F3CF9A
:100F5000A4F0A203F350A527F450A423000E03220B
:100F60009E51A103F350A527F450A423000E026A5A
:100F7000032202229C51A203F350A427F45003221F
:100F8000000E02229C51A103F3500326F4500222CA
:100F9000000E016A01229E51A003F350A427F450D1
:100FA0000322000E022201229D51A003F3500326CA
:100FB000F4500222000E01229C51A003F35002269D
:100FC000F4500122002A01BE05D0A43703360236B0
:100FD00001360006000EA4AF0AD0032A0222012225
:100FE000015005E1025003E1035001E1002AA3BFD3
:100FF000018EA3AF019E04D0006A016A026A036AEF
:10100000000C9151D8B4A5D09D6F9551D8B4A1D002
:101010009D5F05E37F0E9D27D8B09BD006D0810E43
:101020009D5FD8A096D0D8B494D09DC000F0016A3E
:10103000026A036A9C6B92C09BF09B8F93C09AF0EC
:1010400094C099F0190E9D6F9851995F0DE2010EB1
:101050009A5F0AE29B5F08E29C5F06E29C2B9B2B57
:101060009A2B9851992728D097519A5F12E2010E36
:101070009B5F0FE29C5F0DE29C2B9B2B97519A2765
:101080009851992719E39A2B17E19B2B15E19C2B7B
:1010900013D0965180099B5F0EE2010E9C5F0BE21C
:1010A0009C2B965180099B2797519A27E9E39B2B0C
:1010B000E7E19C2BE5D703809D2F01D00BD0D89082
:1010C00099379A379B379C37D890033602360136CA
:1010D0009E37BAD79EA106D0D89001320232033291
:1010E0009E3302D0000635E09EBF1ED0D8909937BF
:1010F0009A379B379C379851995F07E2010E9A5FA8
:1011000004E29B5F02E29C5F1AE397519A5F05E25B
:10111000010E9B5F02E29C5F12E3965180099B5F88
:1011200003E2010E9C5F0BE3032A09E1022A07E1B7
:10113000012A05E1002A0DE001320232033292C099
:101140009DF096519D1B9DAF02D0018E06D0019E51
:1011500004D0006A016A026A036A68EF0AF0F2AE1C
:101160009D91F2BE9D81F29E7B513F0802E23F0EAF
:101170007B6F7B517B2B036A3A0FE96E000E0320D5
:10118000EA6E9CC0EFFFF29E9DB1F28E7AA107D06D
:10119000186AF2BE188EF29E85DD18BEF28EE1EF5F
:1011A00008F07B513F080AE27AA107D0186AF2BE24
:1011B000188EF29E77DD18BEF28EF3D79BC09CF09E
:1011C000CED7000C9B51B6089B6F036A9CC09FF062
:1011D0009C8FD8909C339D339E3303320232013270
:1011E00000329B2FF6D79FAF0BD0001E011E021EB0
:1011F000031E002AD8B4012AD8B4022AD8B4032A7C
:1012000066EF09F0006A016A026A036AA36BA46BC5
:10121000A56BA66BA251A111A0119F112CE0200E6D
:10122000A76FD8909B379C379D379E37A337A4373D
:10123000A537A637A251A65D08E1A151A55D05E13C
:10124000A051A45D02E19F51A35D0FE39F51A35FF5
:10125000A051D8A0A03DA45FA151D8A0A13DA55FF9
:10126000A251D8A0A23DA65FD88000360136023632
:101270000336A72FD6D7EA6AA30EE96E000CE95011
:10128000936F9251956F19E091C09EF090C09DF0C0
:101290008FC09CF08EC09BF0A26BA16B200EA06F44
:1012A000820E9F6F35DE03C091F002C090F001C046
:1012B0008FF000C08EF0952FE7D791C09EF090C0C0
:1012C0009DF08FC09CF08EC09BF07CD703C091F046
:1012D00002C090F001C08FF000C08EF091AF0DD031
:1012E0009307938B8E1F8F1F901F911F8E2BD8B447
:1012F0008F2BD8B4902BD8B4912B3B0E9A6F9A0EAB
:10130000996FCA0E986F976B0A0E956F9251D8B469
:10131000932B91C09EF090C09DF08FC09CF08EC02A
:101320009BF09AC0A2F099C0A1F098C0A0F097C01D
:101330009FF068DF0150EFCF8EF0ECCF8FF0ECCF55
:1013400090F0ECCF91F000520FE19229955D0CE006
:1013500093510CE00F0B955D01E037E293BF35D060
:1013600093BD04D0200E2DD0200E931793AB0CD03C
:10137000939B9251D8A493070050936F2D0E9B6FAF
:1013800010DF9351006E936B9251955D0AE100500E
:10139000936F2E0E9B6F05DF9351006E200E9317F7
:1013A000000E300E93AB0DD0939B9251D8A49307AF
:1013B0000050936F2D0E9B6FF4DE9351006E936B74
:1013C000300E002600C09BF0ECDE9AC09EF099C063
:1013D0009DF098C09CF097C09BF0A26BA16BA06B96
:1013E0000A0E9F6F0FDF03C09AF002C099F001C090
:1013F00098F000C097F0952F8CD788EF0AF0F86A24
:10140000D09E0D8EEA6AE96AC150C00B0F09C16E09
:10141000070EB46E1F6A216A040E226E0C0E236E34
:10142000266A7B6B806B886B876BC150C00B0E0983
:10143000C16EC080C082C084C08EC280000E016EAA
:10144000C250C30B0110C26E1FEC01F029D510DD94
:101450001A5265E0020E8D6FFA0E8E6F28D58D2F11
:10146000FBD7C282C2B2FED7C3CF85F0C4CF86F00D
:101470008751855D03E18851865D4DE086C08EF021
:1014800085C08DF029D59E6B9D6B200E9C6F810EC3
:101490009B6F03C0A2F002C0A1F001C0A0F000C089
:1014A0009FF036DD00C08DF001C08EF002C08FF0DD
:1014B00003C090F003C094F002C093F001C092F01A
:1014C00000C091F0986B976B966B890E956F99D5CC
:1014D00003C08CF002C08BF001C08AF000C089F01C
:1014E0008D6B8D5100EC01F08D2B006E9B6F59DEE2
:1014F0000A0E8D5DF6E1C90EE96E8CC091F08BC0CD
:1015000090F08AC08FF089C08EF0020E926FB7D62D
:10151000560E9B6F46DE86C088F085C087F097D751
:021520000300C6
:020000040030CA
:0E000000240E3E1E008381000FC00FE00F4053
:00000001FF
;PIC18F4550
